:020000040800F2
:100000002804002005010008E3020008DB020008C4
:10001000DF0200084D0100086D0400080000000028
:1000200000000000000000000000000009030008BC
:100030005101000800000000E5020008F503000877
:100040001F0100081F0100081F0100081F01000810
:100050001F0100081F0100081F0100081F01000800
:100060001F0100081F0100081F0100081F010008F0
:100070001F0100081F0100081F0100081F010008E0
:100080001F0100081F0100081F0100081F010008D0
:100090001F0100081F0100081F0100081F010008C0
:1000A0001F0100081F0100081F0100081F010008B0
:1000B0001F0100081F0100081F0100081F010008A0
:1000C0001F0100081F0100081F0100081F01000890
:1000D0001F0100081F0100081F0100081F01000880
:1000E0001F0100081F0100081F010008DFF810D0E1
:1000F00000F01AF80048004791040008AFF30080B0
:10010000280400200648804706480047FEE7FEE72F
:10011000FEE7FEE7FEE7FEE7FEE7FEE7FEE7FEE7B7
:100120000D040008ED000008064C074D06E0E068ED
:1001300040F0010394E8070098471034AC42F6D32E
:10014000FFF7D8FF540500087405000800BFFEE75C
:100150007047014642F6E06201FB02F000E0401EFB
:100160000028FCD17047000010B50121102000F0DC
:10017000BBF8074800F0A4F84FF400500449088089
:10018000032088701020C870024800F005F810BDE8
:1001900000000020001001402DE9F041024600253A
:1001A0000026002000230024002791F803C00CF053
:1001B0000F0591F803C00CF0100CBCF1000F03D038
:1001C00091F802C04CEA050591F800C0BCF1000F9F
:1001D00031D0146800202BE04FF0010C0CFA00F332
:1001E000B1F800C00CEA03069E4220D183004FF014
:1001F0000F0C0CFA03F7BC4305FA03FC4CEA0404A9
:1002000091F803C0BCF1280F06D14FF0010C0CFA95
:1002100000FCC2F814C00AE091F803C0BCF1480F1A
:1002200005D14FF0010C0CFA00FCC2F810C0401CC4
:100230000828D1D31460B1F800C0BCF1FF0F34DD41
:10024000546800202EE000F1080C4FF0010808FA75
:100250000CF3B1F800C00CEA03069E4221D18300E2
:100260004FF00F0C0CFA03F7BC4305FA03FC4CEA01
:10027000040491F803C0BCF1280F05D100F1080C6B
:1002800008FA0CF8C2F8148091F803C0BCF1480FCA
:1002900007D100F1080C4FF0010808FA0CF8C2F879
:1002A0001080401C0828CED35460BDE8F08102467F
:1002B000002093680B400BB1012000E00020704744
:1002C0004FF6FF710180022181700421C1707047D7
:1002D0000AB1016100E04161704700BFFEE700BF65
:1002E000FEE770477047000029B1064A9269024351
:1002F000044B9A6104E0034A92698243014B9A617C
:100300007047000000100240704710B500F002F87E
:1003100010BD00000CB5002001900090334800682B
:1003200040F480303149086000BF3048006800F474
:10033000003000900198401C0190009818B9019875
:10034000B0F5A06FF1D12948006800F4003010B179
:100350000120009001E0002000900098012843D186
:100360002348006840F010002149086008460068F2
:1003700020F0030008600846006840F002000860B2
:100380001A4840681949486008464068486008466D
:10039000406840F4806048600846406820F47C1063
:1003A00048600846406840F4E81048600846006825
:1003B00040F08070086000BF0C48006800F00070DA
:1003C0000028F9D00948406820F003000749486038
:1003D0000846406840F00200486000BF034840689B
:1003E00000F00C000828F9D10CBD000000100240FC
:1003F000002002400448006820B103480068401E05
:1004000001490860704700000C00002010B5134837
:10041000006840F001001149086008464068104932
:1004200008400E494860084600680E4908400B49DC
:1004300008600846006820F480200860084640688C
:1004400020F4FE0048604FF41F008860FFF75DFF56
:100450004FF000600449086010BD00000010024029
:100460000000FFF8FFFFF6FE08ED00E000BFFEE72A
:1004700002E008C8121F08C1002AFAD1704770476D
:10048000002001E001C1121F002AFBD170470000CB
:10049000FFF76AFE294800684FF47A72B0FBF2F168
:1004A000B1F1807F01D301201DE021F07F40401E8B
:1004B0004FF0E022506150170F22002807DA13078F
:1004C0001D0E1F4B00F00F04241F1D5503E01307E2
:1004D0001C0E1C4B1C5400BF00204FF0E02290610A
:1004E00007201061002008B100BFFEE724E04FF4B0
:1004F00000511548FFF7DBFE80F0010422464FF45F
:1005000000511148FFF7E4FE4FF4FA70FFF721FEA7
:100510000E4800680E49096808440C4908600846FE
:1005200000680A2803DA08460068002804DC084846
:100530000068404206490860D9E70000100000202A
:1005400018ED00E000E400E000100140040000208D
:1005500008000020740500080000002024000000AE
:10056000700400089805000824000020040400001E
:1005700080040008000000000000000001000000EE
:100580000000000000A24A0400000000000000007B
:0805900001020304060708093B
:0400000508000105E9
:00000001FF
